:100000000C9441000C94A7090C94A7090C94770553
:100010000C94A7090C94A7090C94A7090C94A709A0
:100020000C94A7090C94A7090C94A7090C94A70990
:100030000C94A7090C94A7090C94A7090C94A70980
:100040000C94A7090C94A7090C94A7090C94A70970
:100050000C94A7090C94A7090C94A7090C94A70960
:100060000C94A7090C94A7090C94A7090C94A70950
:100070000C94A7090C94A7090C94A709010001048A
:10008000800011241FBECFEFD8E0DEBFCDBFECE76C
:10009000F0E040E017C0B591A5913591259105910B
:1000A00007FD0CC095918591EF01F92FE82F059080
:1000B0000D92A217B307D9F7FE0104C01D92A21733
:1000C000B307E1F7E138F40731F70E9403030C941A
:0600D000F608F894FFCFD2
:1000D60044414E4745522061742074656D706572C7
:1000E600617475726520000D0A0044414E47455201
:1000F60020617420707265737375726520004441C7
:100106004E474552206174206D6574616E2000442F
:10011600414E47455220617420636172626F6E6D75
:100126006F6E6F7869646520005741524E494E479D
:100136002061742074656D706572617475726520D6
:10014600005741524E494E472061742070726573C4
:100156007375726520005741524E494E47206174AF
:10016600206D6574616E20005741524E494E4720FE
:10017600617420636172626F6E6D6F6E6F78696411
:10018600652000534146450D0A00434F4E464947F8
:10019600205448524553484F4C440D0A0074656D2F
:1001A600705F7468726573686F6C643A2020205BB8
:1001B60000203B20005D0D0A0070726573735F744A
:1001C60068726573686F6C643A20205B006D7134E9
:1001D6005F7468726573686F6C643A202020205BD8
:1001E600006D71375F7468726573686F6C643A206E
:0501F6002020205B0049
:1001FC004F925F926F927F928F929F92AF92BF922B
:10020C00CF92DF92EF92FF920F931F93CF93DF93D6
:10021C00CDB7DEB7A3970FB6F894DEBF0FBECDBF38
:10022C000E949C0423E0AE014F5F5F4F67EF87E7AE
:10023C000E943207898190E0A0E0B0E0AC01BD01E2
:10024C00032E3CE0440F551F661F771F3A95D1F7DC
:10025C00302D9A81892F90E0A0E0B0E0880F991F93
:10026C00AA1FBB1F880F991FAA1FBB1F880F991F9E
:10027C00AA1FBB1F880F991FAA1FBB1F842B952B6E
:10028C00A62BB72B2B8122952F70AC01BD01422BD5
:10029C004C8B5D8B6E8B7F8B8EE80E942D088C01B6
:1002AC0080E90E94A4099C01990F440B550B2C83E7
:1002BC003D834E835F8382E90E94A409AC01990FB0
:1002CC00660B770B488759876A877B8784E90E947E
:1002DC00A4099C01990F440B550B2C873D874E8725
:1002EC005F8786E90E94A409AC01990F660B770B16
:1002FC00488B598B6A8B7B8B88E90E94A4092C0153
:10030C00990F660877088AE90E94A4099C01990F45
:10031C00440B550B288F398F4A8F5B8F8CE90E94C9
:10032C00A409AC01990F660B770B4C8F5D8F6E8F08
:10033C007F8F8EE90E94A4099C01990F440B550BE9
:10034C0028A339A34AA35BA3C0900001D09001015C
:10035C00E0900201F0900301F594E794D794C794D0
:10036C003AEFD31AE108F108C701B60195958795C4
:10037C007795679595958795779567959B01AC01D2
:10038C000E94BD084B015C01052E5BE0959587959D
:10039C00779567955A95D1F7502DA30192010E943C
:1003AC00BD082B013C01288939894A895B89C70121
:1003BC00B6010E94BD08DC01CB01880F991FAA1F52
:1003CC00BB1F480E591E6A1E7B1E7594679457946A
:1003DC00479475946794579447944C855D856E85C6
:1003EC007F85DA0199278827480E591E6A1E7B1EC5
:1003FC00C501B401052E5DE09595879577956795B8
:10040C005A95D1F7502D288539854A855B850E94F0
:10041C00BD084B015C01689412F8B594A7949794AD
:10042C0087941694D1F72C813D814E815F81C70151
:10043C00B6010E94BD08DC01CB01B595A795979537
:10044C008795880D991DAA1DBB1D072E72E1B595C8
:10045C00A795979587957A95D1F7702D9C01AD014D
:10046C0030584F4F5F4FD8010E94EB086B017C0155
:10047C000B2EBFE0F594E794D794C794BA95D1F7B7
:10048C00B02DC114D104E104F10409F49CC080E046
:10049C0090E0A0E1B0E02C893D894E895F89821BF8
:1004AC00930BA40BB50B032E3CE0759467945794F7
:1004BC0047943A95D1F7302D9C01AD01241935099B
:1004CC0046095709A5E3BCE00E94EB0899235CF0B0
:1004DC00660F771F881F991FA70196010E94D607E8
:1004EC0069017A010AC0A70196010E94D607690129
:1004FC007A01CC0CDD1CEE1CFF1CC701B601689404
:10050C0012F896958795779567951694D1F79B0178
:10051C00AC010E94BD08052E5DE0969587957795F8
:10052C0067955A95D1F7502D28A139A14AA15BA105
:10053C000E94BD084B015C01072E7CE0B594A7948A
:10054C00979487947A95D1F7702DC701B60196953B
:10055C0087957795679596958795779567952C8D63
:10056C003D8D4E8D5F8D0E94BD08DC01CB01072EA9
:10057C007DE0B595A795979587957A95D1F7702DD0
:10058C00880D991DAA1DBB1D488D598D6A8D7B8DBB
:10059C00840F951FA61FB71F689413F8B595A795E0
:1005AC00979587951694D1F7BC01CD016C0D7D1DE7
:1005BC008E1D9F1D24E630E040E050E00E94D607DF
:1005CC00CA01B90103C060E070E0CB01A3960FB67D
:1005DC00F894DEBF0FBECDBFDF91CF911F910F916D
:1005EC00FF90EF90DF90CF90BF90AF909F908F9047
:0A05FC007F906F905F904F9008957C
:10060600CF93DF93CDB7DEB764970FB6F894DEBF0E
:100616000FBECDBF60E875E280E090E00E94AC08B6
:100626000E9480090E949B090E94710782E00E9435
:100636005C0878941C8AF12C0EC00F2D10E0B801CE
:1006460080E80E942809E1E0F0E0EC0FFD1FE00FD2
:10065600F11F8083F39427E02F1578F70E949C04FE
:100666006B017C010E94FE002B013C01C701B60113
:1006760024E630E040E050E00E944508022F39872A
:10068600C22ED32EE42EF52E80E00E948309AC0103
:1006960060E070E0DB01CA01880F991FAA1FBB1F2B
:1006A600880F991FAA1FBB1F480F591F6A1F7B1F60
:1006B600DB01CA01072E7AE0B695A795979587952F
:1006C6007A95D1F7702D8A879B87AC87BD872A8458
:1006D6003B8481E00E948309AC0160E070E0DB01AD
:1006E600CA01880F991FAA1FBB1F880F991FAA1F2F
:1006F600BB1F480F591F6A1F7B1FDB01CA01072E4C
:100706007AE0B695A795979587957A95D1F7702D46
:100716008E879F87A88BB98BAE85BF85BB8BAA8B2F
:100726008A80912CA12CB12C8C149D04AE04BF049C
:10073600A4F466ED70E080E00E947208802F99852F
:100746000E943E066DEE70E080E00E9472080E94F4
:100756006A0911E0B2E0BC8B51C08C8190E0A0E048
:10076600B0E084159505A605B70598F460EF70E02E
:1007760080E00E947208C2010E943E066DEE70E0A3
:1007860080E00E9472080E946A0911E022E02C8B28
:1007960035C08E8190E082159305A0F464E071E087
:1007A60080E00E9472088A859B850E943E066DEE57
:1007B60070E080E00E9472080E946A0911E032E04F
:1007C6003C8B1CC0888590E0AA89BB898A179B0749
:1007D600A0F465E171E080E00E9472088E859F8535
:1007E6000E943E066DEE70E080E00E9472080E9454
:1007F6006A0911E0B2E0BC8B01C010E011111BCFF9
:10080600898190E0A0E0B0E0C816D906EA06FB06AA
:10081600CCF08C149D04AE04BF04A4F06FE271E02A
:1008260080E00E947208802F99850E943E066DEE38
:1008360070E080E00E9472080E94700981E021E069
:100846002C8B66C08B8190E0A0E0B0E0481659067C
:100856006A067B06E0F08C8190E0A0E0B0E08415AB
:100866009505A605B70598F067E471E080E00E945B
:100876007208C2010E943E066DEE70E080E00E94A2
:1008860072080E94700981E031E03C8B41C08D8185
:1008960090E028163906C8F08E8190E082159305FF
:1008A600A0F06CE571E080E00E9472088A859B8565
:1008B6000E943E066DEE70E080E00E9472080E9483
:1008C600700981E091E09C8B23C08F8190E0AA891A
:1008D600BB89A817B907C8F0888590E08A179B07D7
:1008E600B0F06EE671E080E00E9472088E859F850A
:1008F6000E943E066DEE70E080E00E9472080E9443
:10090600700981E0B1E0BC8B03C080E001C080E0EB
:10091600111191CE81118FCE2C89222309F48BCE11
:1009260069E871E080E00E9472080E9476091C8ADC
:0209360082CE6F
:100938004F925F926F927F928F929F92AF92BF92E7
:10094800CF92DF92EF92FF92CF93DF9300D00F9276
:10095800CDB7DEB723E0AE014F5F5F4F6AEF87E7A1
:100968000E943207C980D12CE12CF12CB701A601D5
:10097800032E3CE0440F551F661F771F3A95D1F7A9
:10098800302D8A81C82ED12CE12CF12CCC0CDD1C09
:10099800EE1CFF1CCC0CDD1CEE1CFF1CCC0CDD1C63
:1009A800EE1CFF1CCC0CDD1CEE1CFF1CC42AD52A37
:1009B800E62AF72A8B8182958F70C82A88E80E94D8
:1009C8002D082C018AE80E94A4095C018CE80E9489
:1009D800A409FC01B701A601689412F875956795FA
:1009E800579547951694D1F7612C712CD301C20104
:1009F800880F991FAA1FBB1F9A01AB01281B390B2F
:100A08004A0B5B0BD5010E9441094B015C01072E83
:100A18007BE0B594A794979487947A95D1F7702D35
:100A2800D701C601689413F8B595A795979587954A
:100A38001694D1F7BC01CD01641975098609970987
:100A48009B01AC010E94BD089B01AC01012E1CE07A
:100A580055954795379527951A95D1F7102DDF01AC
:100A68000E944109DC01CB01072E7EE0B595A795D0
:100A7800979587957A95D1F7702D880D991DAA1DA0
:100A8800BB1D8093000190930101A0930201B093D4
:100A980003016C017D01CC0CDD1CEE1CFF1CCC0C91
:100AA800DD1CEE1CFF1C8C0D9D1DAE1DBF1D80584E
:100AB8009F4FAF4FBF4F692F7A2F8B2F992787FDF5
:100AC8009A950F900F900F90DF91CF91FF90EF9034
:100AD800DF90CF90BF90AF909F908F907F906F9056
:060AE8005F904F9008959D
:100AEE001F920F920FB60F9211242F933F934F9395
:100AFE005F936F937F938F939F93AF93BF93CF9398
:100B0E00EF93FF9360E971E080E00E94720863EA60
:100B1E0071E080E00E9472080E949E09C82F682F23
:100B2E0080E090E00E949A088C2F90E00E943E0692
:100B3E0067EB71E080E00E9472080E949E09C82F48
:100B4E00682F81E090E00E949A088C2F90E00E941E
:100B5E003E066BEB71E080E00E9472086FEB71E075
:100B6E0080E00E9472080E949E09C82F682F82E0C2
:100B7E0090E00E949A088C2F90E00E943E0667EB50
:100B8E0071E080E00E9472080E949E09C82F682FB3
:100B9E0083E090E00E949A088C2F90E00E943E061F
:100BAE006BEB71E080E00E94720863ED71E080E013
:100BBE000E9472080E949E09C82F682F84E090E060
:100BCE000E949A088C2F90E00E943E0667EB71E01F
:100BDE0080E00E9472080E949E09C82F682F85E04F
:100BEE0090E00E949A088C2F90E00E943E066BEBDC
:100BFE0071E080E00E94720867EE71E080E00E9472
:100C0E0072080E949E09C82F682F86E090E00E940D
:100C1E009A088C2F90E00E943E0667EB71E080E010
:100C2E000E9472080E949E09C82F682F87E090E0EC
:100C3E000E949A088C2F90E00E943E066BEB71E0AA
:100C4E0080E00E9472081A9BFECFFF91EF91CF9128
:100C5E00BF91AF919F918F917F916F915F914F91C6
:0E0C6E003F912F910F900FBE0F901F90189581
:100C7C001F93CF93DF9300D000D00F92CDB7DEB788
:100C8C00AC01892B91F580E30E94A10941C09A0126
:100C9C00ADECBCEC0E94DC089695879596958795F3
:100CAC00969587959C01220F331F880F991F880FEB
:100CBC00991F880F991F820F931F9A01281B390BBC
:100CCC00C901805DE1E0F0E0EC0FFD1FE10FF11DCB
:100CDC0080839A010E94DC08AC0156954795569585
:100CEC004795569547951F5F01C010E0411551057A
:100CFC0069F0153060F20AC01150E1E0F0E0EC0F41
:100D0C00FD1FE10FF11D80810E94A1091111F4CF8B
:100D1C000F900F900F900F900F90DF91CF911F912C
:020D2C00089528
:100D2E00CF93C82FDB01CA01880F991FAA1FBB1FC3
:100D3E00880F991FAA1FBB1F9C01AD01220F331FE5
:100D4E00441F551F60E072E18AE790E00E94D607CB
:100D5E0021503109C1111AC0E0ECF0E080818260AF
:100D6E008083E1ECF0E08081806180838081886007
:100D7E008083E2ECF0E080818460808380818260F9
:100D8E0080833093C5002093C40019C0E8ECF0E0D6
:100D9E00808182608083E9ECF0E0808180618083D5
:100DAE00808188608083EAECF0E0808184608083BB
:100DBE008081826080833093CD002093CC00CF91D0
:020DCE00089586
:100DD000FF920F931F93CF93DF93F62E8A01E901C1
:100DE000009719F024E6261730F4F80111821082DA
:100DF0001982188231C09C01A4E8BEE10E94DC087F
:100E000020ED37E040E050E00E94D6072115310583
:100E1000F1E04F07510520F02FEF3FEF40E050E0A9
:100E2000223031054105510530F4F801118210825C
:100E30001982188211C021503109F80131832083B1
:100E4000AF2DB0E00E94DC0824E630E040E050E046
:100E50000E94D60739832883DF91CF911F910F918C
:040E6000FF90089562
:100E6400EF92FF920F931F93CF93DF93222381F18D
:100E7400D22F8A01F62EC82F0E9489098C2F880F41
:100E84000E9498098F2D0E9498090E948C098C2F2A
:100E940090E0880F991F81600E949809C0E008C003
:100EA4007801EC0EF11C0E949209F7018083CF5F58
:100EB4006C2F70E08D2F90E001976817790784F309
:100EC400E801C80FD91F0E94950988830E948F09E1
:0E0ED400DF91CF911F910F91FF90EF90089545
:100EE200CF92DF92EF920F93CF93DF930F92CDB712
:100EF200DEB70E94860986EB8983CE0101966C01DA
:100F020020E8E22E01E04E2D960160EE87E70E9476
:100F1200A80719824E2D960162EF87E70E94A80763
:100F220087E289834E2D960164EF87E70E94A80726
:100F320019824E2D960165EF87E70E94A8070F9050
:0E0F4200DF91CF910F91EF90DF90CF90089547
:100F5000CF92DF92EF920F93CF93DF930023F9F0BC
:100F60006901E42EC62FD82F0E9489098D2F880F82
:100F70000E9498098C2F0E949809C0E00CC0AE2DE9
:100F8000C6018C0F911DA11DFC018491A7FD8081DC
:100F90000E949809CF5FC01790F30E948F09DF91DC
:0C0FA000CF910F91EF90DF90CF9008955B
:100FAC00A1E21A2EAA1BBB1BFD010DC0AA1FBB1F61
:100FBC00EE1FFF1FA217B307E407F50720F0A21BD3
:100FCC00B30BE40BF50B661F771F881F991F1A9440
:100FDC0069F760957095809590959B01AC01BD016A
:040FEC00CF01089594
:100FF000CF93DF9300D000D0CDB7DEB79E012D5F39
:101000003F4FAE014F5F5F4F0E94E806BE016D5F2C
:101010007F4FCE0101960E94CD080F900F900F9048
:081020000F90DF91CF910895BC
:101028008170ECE7F0E090819E7F892B8083EAE76E
:10103800F0E080818064808380917A0086FDFCCF17
:10104800209178008091790090E0982F8827822B52
:021058000895F9
:10105A00CF93DF9300D0CDB7DEB722E0AE014F5F6A
:10106A005F4F682F87E70E9432078A8190E0982FA6
:10107A0088272981822B0F900F90DF91CF910895B5
:10108A00052E97FB1EF400940E94390957FD07D0DC
:10109A000E94D60707FC03D04EF40C9439095095E8
:0E10AA004095309521953F4F4F4F5F4F089571
:1010B80094B19B7F94B995B1946095B9E9E6F0E055
:1010C80090819F7C9083208130E1839FC00111240F
:0C10D800822B80838DB384608DBB089553
:1010E400CF92DF92EF926B01E82E06C00E94A10915
:1010F4008FEFC81AD80AE80AF6018491E7FC8081C8
:0C1104008111F4CFEF90DF90CF900895A0
:101110008AB180618AB983E28093800085E18093FF
:101120008100109289001092880010928B0010921A
:041130008A00089594
:10113400262FF999FECF92BD81BDF89A019700B48C
:10114400021639F01FBA20BD0FB6F894FA9AF99A2C
:041154000FBE08952D
:10115800CF92DF92EF92FF926B017C010E945E09B1
:10116800C701B6010E946409FF90EF90DF90CF900D
:021178000895D8
:10117A00DB018F939F930E94EB08BF91AF91A29FCF
:10118A00800D911DA39F900DB29F900D112408957B
:10119A00FC01808191819093890080938800FB01F2
:0E11AA008081918190938B0080938A0008953C
:1011B800A29FB001B39FC001A39F700D811D112490
:0E11C800911DB29F700D811D1124911D08957F
:1011D6000E94DC08A59F900DB49F900DA49F800DE2
:0611E600911D1124089583
:1011EC00EC010E94AC090E94AB09CE010E94AD0932
:0611FC00CE010E94A909CA
:101202008093BB0084E88093BC008091BC0088235B
:04121200E4F7089560
:1012160084EC8093BC008091BC008823E4F7809125
:04122600BB0008956C
:10122A0084E88093BC008091BC008823E4F7809115
:04123A00BB00089558
:10123E0082E08093B8001092B90084E08093BC00E5
:02124E00089501
:10125000CB01F999FECF92BD81BDF89A992780B54F
:021260000895EF
:1012620084EA8093BC008091BC008823E4F708954F
:1012720090958095709561957F4F8F4F9F4F089500
:10128200B7FF0C94EB080E94EB08821B930B0895A6
:0E12920080E480937C0087E880937A000895C2
:0E12A0009091C80095FFFCCF8093CE0008957A
:0E12AE008091C0008823E4F78091C600089567
:0C12BC00AB01BC0180E00E949706089581
:0C12C800AB01BC0181E00E949706089574
:0C12D4006AE584EF91E00E94F80708959D
:0C12E00062E384EF91E00E94F80708959B
:0C12EC0060E080E090E00E94F8070895A8
:0812F80084E98093BC00089515
:061300000E944909089556
:061306000E941408089586
:06130C000E941F09089574
:061312000E94310908955C
:061318000E943109089556
:06131E000E947C09089505
:061324000E940B09089570
:06132A000E941509089560
:061330000E94010908956E
:061336000E9488080895E2
:06133C000E94570908950C
:061342000E94500908950D
:061348000E942D0808952B
:04134E000C940000FB
:041352000E9469008C
:021356000895F8
:021358000895F6
:02135A000895F4
:00000001FF
