:100000000C9441000C946E080C946E080C947304CC
:100010000C946E080C946E080C946E080C946E0888
:100020000C946E080C946E080C946E080C946E0878
:100030000C946E080C946E080C946E080C946E0868
:100040000C946E080C946E080C946E080C946E0858
:100050000C946E080C946E080C946E080C946E0848
:100060000C946E080C946E080C946E080C946E0838
:100070000C946E080C946E080C946E080100010438
:10008000800011241FBECFEFD8E0DEBFCDBFECE76C
:10009000F0E040E017C0B591A5913591259105910B
:1000A00007FD0CC095918591EF01F92FE82F059080
:1000B0000D92A217B307D9F7FE0104C01D92A21733
:1000C000B307E1F7E138F40731F70E94BF020C945F
:0600D000FA07F894FFCFCF
:1000D60044414E4745522061742074656D706572C7
:1000E6006174757265200044414E47455220617423
:1000F600207072657373757265200044414E4745E2
:1001060052206174206D6574616E200044414E4733
:10011600455220617420636172626F6E6D6F6E6FFF
:100126007869646520005741524E494E47206174F4
:100136002074656D70657261747572652000574133
:10014600524E494E47206174207072657373757202
:100156006520005741524E494E47206174206D6517
:1001660074616E20005741524E494E4720617420FB
:10017600636172626F6E6D6F6E6F78696465200081
:05018600534146450055
:10018B00434F4E464947205448524553484F4C44E1
:10019B000D0A0074656D705F7468726573686F6CBF
:1001AB00643A2020205B00203B20005D0D0A00708C
:1001BB00726573735F7468726573686F6C643A20F1
:1001CB00205B006D71345F7468726573686F6C646B
:1001DB003A202020205B006D71375F746872657365
:0B01EB00686F6C643A202020205B004D
:1001F6004F925F926F927F928F929F92AF92BF9231
:10020600CF92DF92EF92FF92CF93DF93CDB7DEB717
:10021600A2970FB6F894DEBF0FBECDBF6D8F7E8F4F
:100226008F8F98A38EE80E9495069AA389A380E9EA
:100236000E946B089C01990F440B550B29833A8346
:100246004B835C8382E90E946B089C01990F440BE7
:10025600550B2D833E834F83588784E90E946B0894
:100266009C01990F440B550B29873A874B875C876E
:1002760086E90E946B089C01990F440B550B2D874C
:100286003E874F87588B88E90E946B082C01990F8F
:10029600660877088AE90E946B089C01990F440B4F
:1002A600550B298B3A8B4B8B5C8B8CE90E946B0828
:1002B6009C01990F440B550B2D8B3E8B4F8B588F02
:1002C6008EE90E946B089C01990F440B550B298FF0
:1002D6003A8F4B8F5C8FC0900001D0900101E09067
:1002E6000201F0900301F594E794D794C7943AEF8E
:1002F600D31AE108F108C701B60195958795779558
:10030600679595958795779567959B01AC010E94B2
:100316008A074B015C01052E5BE0959587957795DD
:1003260067955A95D1F7502DA30192010E948A072D
:100336002B013C012D853E854F855889C701B601A5
:100346000E948A07DC01CB01880F991FAA1FBB1FD9
:10035600480E591E6A1E7B1E7594679457944794DF
:10036600759467945794479429853A854B855C859F
:10037600D90199278827480E591E6A1E7B1EC5017A
:10038600B401052E5DE095958795779567955A9505
:10039600D1F7502D2D813E814F8158850E948A07C5
:1003A6004B015C01689412F8B594A79497948794CE
:1003B6001694D1F729813A814B815C81C701B60138
:1003C6000E948A07DC01CB01B595A795979587957D
:1003D600880D991DAA1DBB1D072E72E1B595A7951F
:1003E600979587957A95D1F7702D9C01AD01305878
:1003F6004F4F5F4FA9A1BAA10E94EF076B017C0185
:100406000B2EBFE0F594E794D794C794BA95D1F72D
:10041600B02DC114D104E104F10409F495C0032EF2
:100426003CE075946794579447943A95D1F7302DEC
:100436008D8D9E8DAF8DB8A1B095A0959095819527
:100446009F4FAF4FBF4F9C01AD0124193509460997
:100456005709A5E3BCE00E94EF07805B9C43992304
:100466005CF0660F771F881F991FA70196010E94EF
:10047600B70669017A010AC0A70196010E94B7066C
:1004860069017A01CC0CDD1CEE1CFF1CC701B6010C
:10049600689412F896958795779567951694D1F78F
:1004A6009B01AC010E948A07052E5DE09695879513
:1004B600779567955A95D1F7502D298D3A8D4B8DA5
:1004C6005C8D0E948A074B015C01072E7CE0B59487
:1004D600A794979487947A95D1F7702DC701B601A2
:1004E6009695879577956795969587957795679568
:1004F6002D893E894F89588D0E948A07DC01CB01E0
:10050600072E7DE0B595A795979587957A95D1F7AE
:10051600702D880D991DAA1DBB1D29893A894B8905
:100526005C89820F931FA41FB51F689413F8B595B5
:10053600A795979587951694D1F7BC01CD016C0DBB
:100546007D1D8E1D9F1D03C060E070E0CB01A2964D
:100556000FB6F894DEBF0FBECDBFDF91CF91FF90EF
:10056600EF90DF90CF90BF90AF909F908F907F904D
:080576006F905F904F90089513
:10057E00CF93DF93CDB7DEB760970FB6F894DEBF9B
:10058E000FBECDBF0E94C7070E94D5070E94250748
:10059E000E94E3070E9465070E944C087894188A0F
:1005AE001F86CE0101960E94D9068AEF0E94490647
:1005BE006B017C0187EF0E9449064B015C01C7016C
:1005CE00B6010E944A050F2EF4E64F2E512C612CD7
:1005DE00712CF02DA30192010E940E0729873A87F4
:1005EE004B875C87C22ED32EE42EF52EC501B401A7
:1005FE000E94FB00A30192010E94B706922E832E49
:10060E004D875E87422E532E642E752E80E00E94FB
:10061E00F5069C01220F331F220F331F820F931FEB
:10062E00092F0695069510E081E00E94F5069C01C3
:10063E00220F331F220F331F820F931F292E269452
:10064E002694312C8A8190E0A0E0B0E08C159D05B7
:10065E00AE05BF05DCF466ED70E080E00E943B075E
:10066E0069857A858B859C850E94E8058DE00E94C0
:10067E0053088AE00E9453080E949A07AA24A39462
:10068E00B12C22E030E0388B2F8764C08C8190E053
:10069E00A0E0B0E084159505A605B705D8F46DEE7B
:1006AE0070E080E00E943B07692D782D8D859E8538
:1006BE000E94E8058DE00E9453088AE00E945308CC
:1006CE000E949A07AA24A394B12C82E090E0988B02
:1006DE008F8740C08E8190E080179107D0F461E043
:1006EE0071E080E00E943B07B80180E090E00E943C
:1006FE00E8058DE00E9453088AE00E9453080E948C
:10070E009A07AA24A394B12C22E030E0388B2F87CD
:10071E0021C0888590E082159305D0F462E171E0E6
:10072E0080E00E943B07B10180E090E00E94E80566
:10073E008DE00E9453088AE00E9453080E949A0797
:10074E00AA24A394B12C82E090E0988B8F8702C0EC
:10075E00A12CB12CA114B10409F023CF898190E012
:10076E00A0E0B0E0C816D906EA06FB061CF18A81A5
:10077E0090E0A0E0B0E08C159D05AE05BF05D4F06D
:10078E006CE271E080E00E943B0769857A858B857B
:10079E009C850E94E8058DE00E9453088AE00E9425
:1007AE0053080E94A90781E090E021E030E0388BE9
:1007BE002F8777C08B8190E0A0E0B0E048165906F5
:1007CE006A067B0618F18C8190E0A0E0B0E08415FB
:1007DE009505A605B705D0F064E471E080E00E94AF
:1007EE003B07692D782D8D859E850E94E8058DE04D
:1007FE000E9453088AE00E9453080E94A90781E0D4
:10080E0090E021E030E0388B2F874BC08D8190E057
:10081E0008171907F0F08E8190E080179107C8F045
:10082E0069E571E080E00E943B07B80180E090E04E
:10083E000E94E8058DE00E9453088AE00E9453084A
:10084E000E94A90781E090E021E030E0388B2F87ED
:10085E0028C08F8190E028163906F0F0888590E048
:10086E0082159305E0F06BE671E080E00E943B0795
:10087E00B10180E090E00E94E8058DE00E945308EF
:10088E008AE00E9453080E94A90781E090E021E0CF
:10089E0030E0388B2F8705C080E090E002C080E00A
:1008AE0090E0AB2809F07DCE892B09F07ACE8F85AA
:1008BE009889892B09F475CE66E871E080E00E9474
:1008CE003B078DE00E9453088AE00E9453080E9465
:0808DE006108188A1F8665CE2F
:1008E6001F920F920FB60F9211242F933F934F939F
:1008F6005F936F937F938F939F93AF93BF93CF93A2
:10090600EF93FF936BE871E080E00E943B076EE98E
:1009160071E080E00E943B070E945A08C82F682FAA
:1009260080E091E00E9478076C2F70E080E090E014
:100936000E94E80562EB71E080E00E943B070E949E
:100946005A08C82F682F81E091E00E9478076C2F23
:1009560070E080E090E00E94E80566EB71E080E0E0
:100966000E943B076AEB71E080E00E943B070E9411
:100976005A08C82F682F82E091E00E9478076C2FF2
:1009860070E080E090E00E94E80562EB71E080E0B4
:100996000E943B070E945A08C82F682F83E091E007
:1009A6000E9478076C2F70E080E090E00E94E805D6
:1009B60066EB71E080E00E943B076EEC71E080E040
:1009C6000E943B070E945A08C82F682F84E091E0D6
:1009D6000E9478076C2F70E080E090E00E94E805A6
:1009E60062EB71E080E00E943B070E945A08C82F24
:1009F600682F85E091E00E9478076C2F70E080E018
:100A060090E00E94E80566EB71E080E00E943B07FB
:100A160062EE71E080E00E943B070E945A08C82FF0
:100A2600682F86E091E00E9478076C2F70E080E0E6
:100A360090E00E94E80562EB71E080E00E943B07CF
:100A46000E945A08C82F682F87E091E00E94780715
:100A56006C2F70E080E090E00E94E80566EB71E0A4
:100A660080E00E943B071A9BFECFFF91EF91CF914A
:100A7600BF91AF919F918F917F916F915F914F91B0
:0E0A86003F912F910F900FBE0F901F9018956B
:100A94004F925F926F927F928F929F92AF92BF928A
:100AA400CF92DF92EF92FF926B017C0188E80E9463
:100AB40095062C018AE80E946B085C018CE80E9470
:100AC4006B08FC01B701A601689412F87595679547
:100AD400579547951694D1F7612C712CD301C20117
:100AE400880F991FAA1FBB1F9A01AB01281B390B42
:100AF4004A0B5B0BD5010E9444084B015C01072E95
:100B04007BE0B594A794979487947A95D1F7702D48
:100B1400D701C601689413F8B595A795979587955D
:100B24001694D1F7BC01CD0164197509860997099A
:100B34009B01AC010E948A079B01AC01012E1CE0C1
:100B440055954795379527951A95D1F7102DDF01BF
:100B54000E944408DC01CB01072E7EE0B595A795E1
:100B6400979587957A95D1F7702D880D991DAA1DB3
:100B7400BB1D8093000190930101A0930201B093E7
:100B840003016C017D01CC0CDD1CEE1CFF1CCC0CA4
:100B9400DD1CEE1CFF1C8C0D9D1DAE1DBF1D805861
:100BA4009F4FAF4FBF4F692F7A2F8B2F992787FD08
:100BB4009A95FF90EF90DF90CF90BF90AF909F9069
:0C0BC4008F907F906F905F904F9008958D
:100BD000CF92DF92EF92FF921F93CF93DF93CDB727
:100BE000DEB72C970FB6F894DEBF0FBECDBF6B01FA
:100BF0007C01611571058105910521F480E30E9456
:100C0000530839C099235CF48DE20E945308F09494
:100C1000E094D094C094C11CD11CE11CF11C10E0E4
:100C200015C0C701B6012AE030E040E050E00E9464
:100C30000E07E1E0F0E0EC0FFD1FE10FF11D605D3C
:100C40006083C22ED32EE42EF52E1F5F1C141D04CC
:100C50001E041F0434F30AC0E1E0F0E0EC0FFD1FB6
:100C6000EF0DF11D80810E9453081F2DFF24FA947F
:100C7000F10E1111F1CF2C960FB6F894DEBF0FBE16
:100C8000CDBFDF91CF911F91FF90EF90DF90CF907C
:020C90000895C5
:100C92001F93CF93DF93C82F0E942C088EEE0E94E1
:100CA2000F088C2F0E940F080E942C088FEE0E94C2
:100CB2000F080E941908182F0E941908C82F0E94B5
:100CC2001908D82F0E9434080E946708812F90E0EB
:100CD200A0E0B0E0072E7CE0880F991FAA1FBB1F7F
:100CE2007A95D1F7702D4C2F50E060E070E0440F00
:100CF200551F661F771F440F551F661F771F440F2E
:100D0200551F661F771F440F551F661F771F842BC1
:100D1200952BA62BB72BD295DF70BC01CD016D2B85
:080D2200DF91CF911F910895AC
:100D2A00CF93DF93C82F0E942C088EEE0E940F08E3
:100D3A008C2F0E940F080E942C088FEE0E940F0829
:100D4A000E941908D82F0E941908C82F0E94340837
:100D5A000E9467088C2F90E0982F88278D2BDF91AF
:040D6A00CF91089588
:100D6E00A1E21A2EAA1BBB1BFD010DC0AA1FBB1FA1
:100D7E00EE1FFF1FA217B307E407F50720F0A21B13
:100D8E00B30BE40BF50B661F771F881F991F1A9480
:100D9E0069F760957095809590959B01AC01BD01AA
:040DAE00CF010895D4
:100DB200FF920F931F93CF93DF938C01F12C0BC003
:100DC2006F2D70E0E801C60FD71F739580E80E946F
:100DD20023088883F39487E08F1590F7DF91CF91F2
:080DE2001F910F91FF9008958D
:100DEA008170ECE7F0E090819E7F892B8083EAE7AF
:100DFA00F0E080818064808380917A0086FDFCCF58
:100E0A00209178008091790090E0982F8827822B92
:020E1A00089539
:100E1C00052E97FB1EF400940E943C0857FD07D04A
:100E2C000E94B70607FC03D04EF40C943C08509576
:0E0E3C004095309521953F4F4F4F5F4F0895E1
:100E4A008AB180618AB983E28093800085E18093C8
:100E5A00810082E49FE0909389008093880085E373
:0C0E6A009CE090938B0080938A00089518
:100E7600CF92DF92EF926B01E82E06C09FEFC91A60
:100E8600D90AE90A0E945308F6018491E7FC808199
:0C0E96008111F4CFEF90DF90CF90089511
:100EA200CF93DF93D82FC62F0E942C088EEE0E947C
:100EB2000F088D2F0E940F088C2F0E940F080E948E
:080EC2006708DF91CF9108954C
:100ECA000E94050866EB80EE0E94510760E082EFFF
:100EDA000E94510767E284EF0E94510760E085EFA4
:060EEA000E94510708956B
:100EF000262FF999FECF92BD81BDF89A019700B4D3
:100F0000021639F01FBA20BD0FB6F894FA9AF99A72
:040F10000FBE089573
:100F1400DB018F939F930E94EF07BF91AF91A29F34
:100F2400800D911DA39F900DB29F900D11240895E3
:100F3400E0E8F0E080818062808380818F7E80831E
:0E0F440085E39CE090938B0080938A000895D3
:100F5200E0E8F0E080818062808380818F7E808300
:0E0F620081EA97E090938B0080938A000895B7
:100F7000A29FB001B39FC001A39F700D811D1124DA
:0E0F8000911DB29F700D811D1124911D0895C9
:100F8E001092CD0083E38093CC001092C80088E0CD
:0C0F9E008093C90086E08093CA0008958B
:100FAA001092C50083E38093C4001092C00080E1D0
:0C0FBA008093C10086E08093C20008957F
:100FC60084B18B7F84B985B1846085B980E28093D2
:080FD600690084E08DBB089561
:100FDE000E94B807A59F900DB49F900DA49F800D01
:060FEE00911D112408957D
:100FF400EC010E9473080E947208CE010E947408DA
:06100400CE010E947008FD
:10100A0088E08093B80081E08093B90084E08093FF
:04101A00BC00089579
:10101E008093BB0084E88093BC008091BC00882341
:04102E00E4F7089546
:1010320084EC8093BC008091BC008823E4F780910B
:04104200BB00089552
:10104600CB01F999FECF92BD81BDF89A992780B55B
:021056000895FB
:1010580084EA8093BC008091BC008823E4F708955B
:1010680084E88093BC008091BC008823E4F708954D
:1010780090958095709561957F4F8F4F9F4F0895FC
:10108800B7FF0C94EF070E94EF07821B930B08959C
:0E10980080E480937C0087E880937A000895BE
:0E10A6009091C80095FFFCCF8093CE00089576
:0E10B4008091C0008823E4F78091C600089563
:0C10C200E0E8F0E080818F7C80830895DE
:0810CE0084E98093BC00089541
:0610D6000E94950608953A
:0410DC000C94000070
:0410E0000E94690001
:0210E40008956D
:0210E60008956B
:0210E800089569
:00000001FF
